{
  "contractName": "StarNotary",
  "abi": [
    {
      "inputs": [],
      "stateMutability": "nonpayable",
      "type": "constructor"
    },
    {
      "anonymous": false,
      "inputs": [
        {
          "indexed": true,
          "internalType": "address",
          "name": "owner",
          "type": "address"
        },
        {
          "indexed": true,
          "internalType": "address",
          "name": "approved",
          "type": "address"
        },
        {
          "indexed": true,
          "internalType": "uint256",
          "name": "tokenId",
          "type": "uint256"
        }
      ],
      "name": "Approval",
      "type": "event"
    },
    {
      "anonymous": false,
      "inputs": [
        {
          "indexed": true,
          "internalType": "address",
          "name": "owner",
          "type": "address"
        },
        {
          "indexed": true,
          "internalType": "address",
          "name": "operator",
          "type": "address"
        },
        {
          "indexed": false,
          "internalType": "bool",
          "name": "approved",
          "type": "bool"
        }
      ],
      "name": "ApprovalForAll",
      "type": "event"
    },
    {
      "anonymous": false,
      "inputs": [
        {
          "indexed": true,
          "internalType": "address",
          "name": "from",
          "type": "address"
        },
        {
          "indexed": true,
          "internalType": "address",
          "name": "to",
          "type": "address"
        },
        {
          "indexed": true,
          "internalType": "uint256",
          "name": "tokenId",
          "type": "uint256"
        }
      ],
      "name": "Transfer",
      "type": "event"
    },
    {
      "inputs": [
        {
          "internalType": "address",
          "name": "to",
          "type": "address"
        },
        {
          "internalType": "uint256",
          "name": "tokenId",
          "type": "uint256"
        }
      ],
      "name": "approve",
      "outputs": [],
      "stateMutability": "nonpayable",
      "type": "function"
    },
    {
      "inputs": [
        {
          "internalType": "address",
          "name": "owner",
          "type": "address"
        }
      ],
      "name": "balanceOf",
      "outputs": [
        {
          "internalType": "uint256",
          "name": "",
          "type": "uint256"
        }
      ],
      "stateMutability": "view",
      "type": "function",
      "constant": true
    },
    {
      "inputs": [
        {
          "internalType": "uint256",
          "name": "tokenId",
          "type": "uint256"
        }
      ],
      "name": "getApproved",
      "outputs": [
        {
          "internalType": "address",
          "name": "",
          "type": "address"
        }
      ],
      "stateMutability": "view",
      "type": "function",
      "constant": true
    },
    {
      "inputs": [
        {
          "internalType": "address",
          "name": "owner",
          "type": "address"
        },
        {
          "internalType": "address",
          "name": "operator",
          "type": "address"
        }
      ],
      "name": "isApprovedForAll",
      "outputs": [
        {
          "internalType": "bool",
          "name": "",
          "type": "bool"
        }
      ],
      "stateMutability": "view",
      "type": "function",
      "constant": true
    },
    {
      "inputs": [],
      "name": "name",
      "outputs": [
        {
          "internalType": "string",
          "name": "",
          "type": "string"
        }
      ],
      "stateMutability": "view",
      "type": "function",
      "constant": true
    },
    {
      "inputs": [
        {
          "internalType": "uint256",
          "name": "tokenId",
          "type": "uint256"
        }
      ],
      "name": "ownerOf",
      "outputs": [
        {
          "internalType": "address",
          "name": "",
          "type": "address"
        }
      ],
      "stateMutability": "view",
      "type": "function",
      "constant": true
    },
    {
      "inputs": [
        {
          "internalType": "address",
          "name": "from",
          "type": "address"
        },
        {
          "internalType": "address",
          "name": "to",
          "type": "address"
        },
        {
          "internalType": "uint256",
          "name": "tokenId",
          "type": "uint256"
        }
      ],
      "name": "safeTransferFrom",
      "outputs": [],
      "stateMutability": "nonpayable",
      "type": "function"
    },
    {
      "inputs": [
        {
          "internalType": "address",
          "name": "from",
          "type": "address"
        },
        {
          "internalType": "address",
          "name": "to",
          "type": "address"
        },
        {
          "internalType": "uint256",
          "name": "tokenId",
          "type": "uint256"
        },
        {
          "internalType": "bytes",
          "name": "data",
          "type": "bytes"
        }
      ],
      "name": "safeTransferFrom",
      "outputs": [],
      "stateMutability": "nonpayable",
      "type": "function"
    },
    {
      "inputs": [
        {
          "internalType": "address",
          "name": "operator",
          "type": "address"
        },
        {
          "internalType": "bool",
          "name": "approved",
          "type": "bool"
        }
      ],
      "name": "setApprovalForAll",
      "outputs": [],
      "stateMutability": "nonpayable",
      "type": "function"
    },
    {
      "inputs": [
        {
          "internalType": "uint256",
          "name": "",
          "type": "uint256"
        }
      ],
      "name": "starsForSale",
      "outputs": [
        {
          "internalType": "uint256",
          "name": "",
          "type": "uint256"
        }
      ],
      "stateMutability": "view",
      "type": "function",
      "constant": true
    },
    {
      "inputs": [
        {
          "internalType": "bytes4",
          "name": "interfaceId",
          "type": "bytes4"
        }
      ],
      "name": "supportsInterface",
      "outputs": [
        {
          "internalType": "bool",
          "name": "",
          "type": "bool"
        }
      ],
      "stateMutability": "view",
      "type": "function",
      "constant": true
    },
    {
      "inputs": [],
      "name": "symbol",
      "outputs": [
        {
          "internalType": "string",
          "name": "",
          "type": "string"
        }
      ],
      "stateMutability": "view",
      "type": "function",
      "constant": true
    },
    {
      "inputs": [
        {
          "internalType": "uint256",
          "name": "",
          "type": "uint256"
        }
      ],
      "name": "tokenIdToStarInfo",
      "outputs": [
        {
          "internalType": "string",
          "name": "name",
          "type": "string"
        }
      ],
      "stateMutability": "view",
      "type": "function",
      "constant": true
    },
    {
      "inputs": [
        {
          "internalType": "uint256",
          "name": "tokenId",
          "type": "uint256"
        }
      ],
      "name": "tokenURI",
      "outputs": [
        {
          "internalType": "string",
          "name": "",
          "type": "string"
        }
      ],
      "stateMutability": "view",
      "type": "function",
      "constant": true
    },
    {
      "inputs": [
        {
          "internalType": "address",
          "name": "from",
          "type": "address"
        },
        {
          "internalType": "address",
          "name": "to",
          "type": "address"
        },
        {
          "internalType": "uint256",
          "name": "tokenId",
          "type": "uint256"
        }
      ],
      "name": "transferFrom",
      "outputs": [],
      "stateMutability": "nonpayable",
      "type": "function"
    },
    {
      "inputs": [
        {
          "internalType": "string",
          "name": "_name",
          "type": "string"
        },
        {
          "internalType": "uint256",
          "name": "_tokenId",
          "type": "uint256"
        }
      ],
      "name": "createStar",
      "outputs": [],
      "stateMutability": "nonpayable",
      "type": "function"
    },
    {
      "inputs": [
        {
          "internalType": "uint256",
          "name": "_tokenId",
          "type": "uint256"
        },
        {
          "internalType": "uint256",
          "name": "_price",
          "type": "uint256"
        }
      ],
      "name": "putStarUpForSale",
      "outputs": [],
      "stateMutability": "nonpayable",
      "type": "function"
    },
    {
      "inputs": [
        {
          "internalType": "uint256",
          "name": "_tokenId",
          "type": "uint256"
        }
      ],
      "name": "buyStar",
      "outputs": [],
      "stateMutability": "payable",
      "type": "function",
      "payable": true
    },
    {
      "inputs": [
        {
          "internalType": "uint256",
          "name": "_tokenId",
          "type": "uint256"
        }
      ],
      "name": "lookUptokenIdToStarInfo",
      "outputs": [
        {
          "internalType": "string",
          "name": "",
          "type": "string"
        }
      ],
      "stateMutability": "view",
      "type": "function",
      "constant": true
    },
    {
      "inputs": [
        {
          "internalType": "uint256",
          "name": "_tokenId1",
          "type": "uint256"
        },
        {
          "internalType": "uint256",
          "name": "_tokenId2",
          "type": "uint256"
        }
      ],
      "name": "exchangeStars",
      "outputs": [],
      "stateMutability": "nonpayable",
      "type": "function"
    },
    {
      "inputs": [
        {
          "internalType": "address",
          "name": "_to1",
          "type": "address"
        },
        {
          "internalType": "uint256",
          "name": "_tokenId",
          "type": "uint256"
        }
      ],
      "name": "transferStar",
      "outputs": [],
      "stateMutability": "nonpayable",
      "type": "function"
    }
  ],
  "bytecode": "0x60806040523480156200001157600080fd5b506040518060400160405280600d81526020017f536f6e4e48363520546f6b656e000000000000000000000000000000000000008152506040518060400160405280600381526020017f564e440000000000000000000000000000000000000000000000000000000000815250816000908051906020019062000096929190620000b8565b508060019080519060200190620000af929190620000b8565b505050620001cd565b828054620000c69062000168565b90600052602060002090601f016020900481019282620000ea576000855562000136565b82601f106200010557805160ff191683800117855562000136565b8280016001018555821562000136579182015b828111156200013557825182559160200191906001019062000118565b5b50905062000145919062000149565b5090565b5b80821115620001645760008160009055506001016200014a565b5090565b600060028204905060018216806200018157607f821691505b602082108114156200019857620001976200019e565b5b50919050565b7f4e487b7100000000000000000000000000000000000000000000000000000000600052602260045260246000fd5b6134e080620001dd6000396000f3fe60806040526004361061012a5760003560e01c806342842e0e116100ab578063a22cb4651161006f578063a22cb46514610405578063b88d4fde1461042e578063c87b56dd14610457578063d7830ccb14610494578063e7152a5c146104d1578063e985e9c5146104fa5761012a565b806342842e0e1461030e5780636352211e1461033757806370a082311461037457806395d89b41146103b15780639697c0a1146103dc5761012a565b806315e0afa5116100f257806315e0afa51461023a5780631967fd981461026357806323b872dd146102a05780632f1c34ef146102c9578063316a4361146102e55761012a565b806301ffc9a71461012f5780630564b1301461016c57806306fdde03146101a9578063081812fc146101d4578063095ea7b314610211575b600080fd5b34801561013b57600080fd5b50610156600480360381019061015191906124df565b610537565b60405161016391906129f3565b60405180910390f35b34801561017857600080fd5b50610193600480360381019061018e9190612585565b610619565b6040516101a09190612c70565b60405180910390f35b3480156101b557600080fd5b506101be610631565b6040516101cb9190612a0e565b60405180910390f35b3480156101e057600080fd5b506101fb60048036038101906101f69190612585565b6106c3565b604051610208919061298c565b60405180910390f35b34801561021d57600080fd5b50610238600480360381019061023391906124a3565b610709565b005b34801561024657600080fd5b50610261600480360381019061025c91906125ae565b610821565b005b34801561026f57600080fd5b5061028a60048036038101906102859190612585565b61090b565b6040516102979190612a0e565b60405180910390f35b3480156102ac57600080fd5b506102c760048036038101906102c2919061239d565b6109b1565b005b6102e360048036038101906102de9190612585565b610a11565b005b3480156102f157600080fd5b5061030c600480360381019061030791906125ae565b610b14565b005b34801561031a57600080fd5b506103356004803603810190610330919061239d565b610ba6565b005b34801561034357600080fd5b5061035e60048036038101906103599190612585565b610bc6565b60405161036b919061298c565b60405180910390f35b34801561038057600080fd5b5061039b60048036038101906103969190612338565b610c4d565b6040516103a89190612c70565b60405180910390f35b3480156103bd57600080fd5b506103c6610d05565b6040516103d39190612a0e565b60405180910390f35b3480156103e857600080fd5b5061040360048036038101906103fe9190612531565b610d97565b005b34801561041157600080fd5b5061042c60048036038101906104279190612467565b610ded565b005b34801561043a57600080fd5b50610455600480360381019061045091906123ec565b610e03565b005b34801561046357600080fd5b5061047e60048036038101906104799190612585565b610e65565b60405161048b9190612a0e565b60405180910390f35b3480156104a057600080fd5b506104bb60048036038101906104b69190612585565b610ecd565b6040516104c89190612a0e565b60405180910390f35b3480156104dd57600080fd5b506104f860048036038101906104f391906124a3565b610f75565b005b34801561050657600080fd5b50610521600480360381019061051c9190612361565b611008565b60405161052e91906129f3565b60405180910390f35b60007f80ac58cd000000000000000000000000000000000000000000000000000000007bffffffffffffffffffffffffffffffffffffffffffffffffffffffff1916827bffffffffffffffffffffffffffffffffffffffffffffffffffffffff1916148061060257507f5b5e139f000000000000000000000000000000000000000000000000000000007bffffffffffffffffffffffffffffffffffffffffffffffffffffffff1916827bffffffffffffffffffffffffffffffffffffffffffffffffffffffff1916145b8061061257506106118261109c565b5b9050919050565b60076020528060005260406000206000915090505481565b60606000805461064090612ea0565b80601f016020809104026020016040519081016040528092919081815260200182805461066c90612ea0565b80156106b95780601f1061068e576101008083540402835291602001916106b9565b820191906000526020600020905b81548152906001019060200180831161069c57829003601f168201915b5050505050905090565b60006106ce82611106565b6004600083815260200190815260200160002060009054906101000a900473ffffffffffffffffffffffffffffffffffffffff169050919050565b600061071482610bc6565b90508073ffffffffffffffffffffffffffffffffffffffff168373ffffffffffffffffffffffffffffffffffffffff161415610785576040517f08c379a000000000000000000000000000000000000000000000000000000000815260040161077c90612c10565b60405180910390fd5b8073ffffffffffffffffffffffffffffffffffffffff166107a4611151565b73ffffffffffffffffffffffffffffffffffffffff1614806107d357506107d2816107cd611151565b611008565b5b610812576040517f08c379a000000000000000000000000000000000000000000000000000000000815260040161080990612c50565b60405180910390fd5b61081c8383611159565b505050565b3373ffffffffffffffffffffffffffffffffffffffff1661084183610bc6565b73ffffffffffffffffffffffffffffffffffffffff16148061089657503373ffffffffffffffffffffffffffffffffffffffff1661087e82610bc6565b73ffffffffffffffffffffffffffffffffffffffff16145b6108d5576040517f08c379a00000000000000000000000000000000000000000000000000000000081526004016108cc90612bf0565b60405180910390fd5b60006108e083610bc6565b905060006108ed83610bc6565b90506108fa8282866109b1565b6109058183856109b1565b50505050565b600660205280600052604060002060009150905080600001805461092e90612ea0565b80601f016020809104026020016040519081016040528092919081815260200182805461095a90612ea0565b80156109a75780601f1061097c576101008083540402835291602001916109a7565b820191906000526020600020905b81548152906001019060200180831161098a57829003601f168201915b5050505050905081565b6109c26109bc611151565b82611212565b610a01576040517f08c379a00000000000000000000000000000000000000000000000000000000081526004016109f890612a70565b60405180910390fd5b610a0c8383836112a7565b505050565b6000600760008381526020019081526020016000205411610a67576040517f08c379a0000000000000000000000000000000000000000000000000000000008152600401610a5e90612c30565b60405180910390fd5b6000600760008381526020019081526020016000205490506000610a8a83610bc6565b9050813411610ace576040517f08c379a0000000000000000000000000000000000000000000000000000000008152600401610ac590612bb0565b60405180910390fd5b610ad98133856109b1565b6000610ae4826115a1565b9050610af081846115ab565b82341115610b0e57610b0d338434610b089190612db6565b6115ab565b5b50505050565b3373ffffffffffffffffffffffffffffffffffffffff16610b3483610bc6565b73ffffffffffffffffffffffffffffffffffffffff1614610b8a576040517f08c379a0000000000000000000000000000000000000000000000000000000008152600401610b8190612a30565b60405180910390fd5b8060076000848152602001908152602001600020819055505050565b610bc183838360405180602001604052806000815250610e03565b505050565b600080610bd28361169f565b9050600073ffffffffffffffffffffffffffffffffffffffff168173ffffffffffffffffffffffffffffffffffffffff161415610c44576040517f08c379a0000000000000000000000000000000000000000000000000000000008152600401610c3b90612bd0565b60405180910390fd5b80915050919050565b60008073ffffffffffffffffffffffffffffffffffffffff168273ffffffffffffffffffffffffffffffffffffffff161415610cbe576040517f08c379a0000000000000000000000000000000000000000000000000000000008152600401610cb590612b70565b60405180910390fd5b600360008373ffffffffffffffffffffffffffffffffffffffff1673ffffffffffffffffffffffffffffffffffffffff168152602001908152602001600020549050919050565b606060018054610d1490612ea0565b80601f0160208091040260200160405190810160405280929190818152602001828054610d4090612ea0565b8015610d8d5780601f10610d6257610100808354040283529160200191610d8d565b820191906000526020600020905b815481529060010190602001808311610d7057829003601f168201915b5050505050905090565b6000604051806020016040528084815250905080600660008481526020019081526020016000206000820151816000019080519060200190610dda92919061215c565b50905050610de833836116dc565b505050565b610dff610df8611151565b83836118fa565b5050565b610e14610e0e611151565b83611212565b610e53576040517f08c379a0000000000000000000000000000000000000000000000000000000008152600401610e4a90612a70565b60405180910390fd5b610e5f84848484611a67565b50505050565b6060610e7082611106565b6000610e7a611ac3565b90506000815111610e9a5760405180602001604052806000815250610ec5565b80610ea484611ada565b604051602001610eb5929190612953565b6040516020818303038152906040525b915050919050565b6060600660008381526020019081526020016000206000018054610ef090612ea0565b80601f0160208091040260200160405190810160405280929190818152602001828054610f1c90612ea0565b8015610f695780601f10610f3e57610100808354040283529160200191610f69565b820191906000526020600020905b815481529060010190602001808311610f4c57829003601f168201915b50505050509050919050565b6000610f8082610bc6565b90503373ffffffffffffffffffffffffffffffffffffffff16610fa283610bc6565b73ffffffffffffffffffffffffffffffffffffffff1614610ff8576040517f08c379a0000000000000000000000000000000000000000000000000000000008152600401610fef90612a50565b60405180910390fd5b6110038184846109b1565b505050565b6000600560008473ffffffffffffffffffffffffffffffffffffffff1673ffffffffffffffffffffffffffffffffffffffff16815260200190815260200160002060008373ffffffffffffffffffffffffffffffffffffffff1673ffffffffffffffffffffffffffffffffffffffff16815260200190815260200160002060009054906101000a900460ff16905092915050565b60007f01ffc9a7000000000000000000000000000000000000000000000000000000007bffffffffffffffffffffffffffffffffffffffffffffffffffffffff1916827bffffffffffffffffffffffffffffffffffffffffffffffffffffffff1916149050919050565b61110f81611bfe565b61114e576040517f08c379a000000000000000000000000000000000000000000000000000000000815260040161114590612bd0565b60405180910390fd5b50565b600033905090565b816004600083815260200190815260200160002060006101000a81548173ffffffffffffffffffffffffffffffffffffffff021916908373ffffffffffffffffffffffffffffffffffffffff160217905550808273ffffffffffffffffffffffffffffffffffffffff166111cc83610bc6565b73ffffffffffffffffffffffffffffffffffffffff167f8c5be1e5ebec7d5bd14f71427d1e84f3dd0314c0f7b2291e5b200ac8c7c3b92560405160405180910390a45050565b60008061121e83610bc6565b90508073ffffffffffffffffffffffffffffffffffffffff168473ffffffffffffffffffffffffffffffffffffffff161480611260575061125f8185611008565b5b8061129e57508373ffffffffffffffffffffffffffffffffffffffff16611286846106c3565b73ffffffffffffffffffffffffffffffffffffffff16145b91505092915050565b8273ffffffffffffffffffffffffffffffffffffffff166112c782610bc6565b73ffffffffffffffffffffffffffffffffffffffff161461131d576040517f08c379a000000000000000000000000000000000000000000000000000000000815260040161131490612ab0565b60405180910390fd5b600073ffffffffffffffffffffffffffffffffffffffff168273ffffffffffffffffffffffffffffffffffffffff16141561138d576040517f08c379a000000000000000000000000000000000000000000000000000000000815260040161138490612af0565b60405180910390fd5b61139a8383836001611c3f565b8273ffffffffffffffffffffffffffffffffffffffff166113ba82610bc6565b73ffffffffffffffffffffffffffffffffffffffff1614611410576040517f08c379a000000000000000000000000000000000000000000000000000000000815260040161140790612ab0565b60405180910390fd5b6004600082815260200190815260200160002060006101000a81549073ffffffffffffffffffffffffffffffffffffffff02191690556001600360008573ffffffffffffffffffffffffffffffffffffffff1673ffffffffffffffffffffffffffffffffffffffff168152602001908152602001600020600082825403925050819055506001600360008473ffffffffffffffffffffffffffffffffffffffff1673ffffffffffffffffffffffffffffffffffffffff16815260200190815260200160002060008282540192505081905550816002600083815260200190815260200160002060006101000a81548173ffffffffffffffffffffffffffffffffffffffff021916908373ffffffffffffffffffffffffffffffffffffffff160217905550808273ffffffffffffffffffffffffffffffffffffffff168473ffffffffffffffffffffffffffffffffffffffff167fddf252ad1be2c89b69c2b068fc378daa952ba7f163c4a11628f55a4df523b3ef60405160405180910390a461159c8383836001611d65565b505050565b6000819050919050565b804710156115ee576040517f08c379a00000000000000000000000000000000000000000000000000000000081526004016115e590612b50565b60405180910390fd5b60008273ffffffffffffffffffffffffffffffffffffffff168260405161161490612977565b60006040518083038185875af1925050503d8060008114611651576040519150601f19603f3d011682016040523d82523d6000602084013e611656565b606091505b505090508061169a576040517f08c379a000000000000000000000000000000000000000000000000000000000815260040161169190612b30565b60405180910390fd5b505050565b60006002600083815260200190815260200160002060009054906101000a900473ffffffffffffffffffffffffffffffffffffffff169050919050565b600073ffffffffffffffffffffffffffffffffffffffff168273ffffffffffffffffffffffffffffffffffffffff16141561174c576040517f08c379a000000000000000000000000000000000000000000000000000000000815260040161174390612b90565b60405180910390fd5b61175581611bfe565b15611795576040517f08c379a000000000000000000000000000000000000000000000000000000000815260040161178c90612ad0565b60405180910390fd5b6117a3600083836001611c3f565b6117ac81611bfe565b156117ec576040517f08c379a00000000000000000000000000000000000000000000000000000000081526004016117e390612ad0565b60405180910390fd5b6001600360008473ffffffffffffffffffffffffffffffffffffffff1673ffffffffffffffffffffffffffffffffffffffff16815260200190815260200160002060008282540192505081905550816002600083815260200190815260200160002060006101000a81548173ffffffffffffffffffffffffffffffffffffffff021916908373ffffffffffffffffffffffffffffffffffffffff160217905550808273ffffffffffffffffffffffffffffffffffffffff16600073ffffffffffffffffffffffffffffffffffffffff167fddf252ad1be2c89b69c2b068fc378daa952ba7f163c4a11628f55a4df523b3ef60405160405180910390a46118f6600083836001611d65565b5050565b8173ffffffffffffffffffffffffffffffffffffffff168373ffffffffffffffffffffffffffffffffffffffff161415611969576040517f08c379a000000000000000000000000000000000000000000000000000000000815260040161196090612b10565b60405180910390fd5b80600560008573ffffffffffffffffffffffffffffffffffffffff1673ffffffffffffffffffffffffffffffffffffffff16815260200190815260200160002060008473ffffffffffffffffffffffffffffffffffffffff1673ffffffffffffffffffffffffffffffffffffffff16815260200190815260200160002060006101000a81548160ff0219169083151502179055508173ffffffffffffffffffffffffffffffffffffffff168373ffffffffffffffffffffffffffffffffffffffff167f17307eab39ab6107e8899845ad3d59bd9653f200f220920489ca2b5937696c3183604051611a5a91906129f3565b60405180910390a3505050565b611a728484846112a7565b611a7e84848484611d6b565b611abd576040517f08c379a0000000000000000000000000000000000000000000000000000000008152600401611ab490612a90565b60405180910390fd5b50505050565b606060405180602001604052806000815250905090565b606060006001611ae984611f02565b01905060008167ffffffffffffffff811115611b2e577f4e487b7100000000000000000000000000000000000000000000000000000000600052604160045260246000fd5b6040519080825280601f01601f191660200182016040528015611b605781602001600182028036833780820191505090505b509050600082602001820190505b600115611bf3578080600190039150507f3031323334353637383961626364656600000000000000000000000000000000600a86061a8153600a8581611bdd577f4e487b7100000000000000000000000000000000000000000000000000000000600052601260045260246000fd5b0494506000851415611bee57611bf3565b611b6e565b819350505050919050565b60008073ffffffffffffffffffffffffffffffffffffffff16611c208361169f565b73ffffffffffffffffffffffffffffffffffffffff1614159050919050565b6001811115611d5f57600073ffffffffffffffffffffffffffffffffffffffff168473ffffffffffffffffffffffffffffffffffffffff1614611cd35780600360008673ffffffffffffffffffffffffffffffffffffffff1673ffffffffffffffffffffffffffffffffffffffff1681526020019081526020016000206000828254611ccb9190612db6565b925050819055505b600073ffffffffffffffffffffffffffffffffffffffff168373ffffffffffffffffffffffffffffffffffffffff1614611d5e5780600360008573ffffffffffffffffffffffffffffffffffffffff1673ffffffffffffffffffffffffffffffffffffffff1681526020019081526020016000206000828254611d569190612d60565b925050819055505b5b50505050565b50505050565b6000611d8c8473ffffffffffffffffffffffffffffffffffffffff16612139565b15611ef5578373ffffffffffffffffffffffffffffffffffffffff1663150b7a02611db5611151565b8786866040518563ffffffff1660e01b8152600401611dd794939291906129a7565b602060405180830381600087803b158015611df157600080fd5b505af1925050508015611e2257506040513d601f19601f82011682018060405250810190611e1f9190612508565b60015b611ea5573d8060008114611e52576040519150601f19603f3d011682016040523d82523d6000602084013e611e57565b606091505b50600081511415611e9d576040517f08c379a0000000000000000000000000000000000000000000000000000000008152600401611e9490612a90565b60405180910390fd5b805181602001fd5b63150b7a0260e01b7bffffffffffffffffffffffffffffffffffffffffffffffffffffffff1916817bffffffffffffffffffffffffffffffffffffffffffffffffffffffff191614915050611efa565b600190505b949350505050565b600080600090507a184f03e93ff9f4daa797ed6e38ed64bf6a1f0100000000000000008310611f86577a184f03e93ff9f4daa797ed6e38ed64bf6a1f0100000000000000008381611f7c577f4e487b7100000000000000000000000000000000000000000000000000000000600052601260045260246000fd5b0492506040810190505b6d04ee2d6d415b85acef81000000008310611fe9576d04ee2d6d415b85acef81000000008381611fdf577f4e487b7100000000000000000000000000000000000000000000000000000000600052601260045260246000fd5b0492506020810190505b662386f26fc10000831061203e57662386f26fc100008381612034577f4e487b7100000000000000000000000000000000000000000000000000000000600052601260045260246000fd5b0492506010810190505b6305f5e100831061208d576305f5e1008381612083577f4e487b7100000000000000000000000000000000000000000000000000000000600052601260045260246000fd5b0492506008810190505b61271083106120d85761271083816120ce577f4e487b7100000000000000000000000000000000000000000000000000000000600052601260045260246000fd5b0492506004810190505b606483106121215760648381612117577f4e487b7100000000000000000000000000000000000000000000000000000000600052601260045260246000fd5b0492506002810190505b600a8310612130576001810190505b80915050919050565b6000808273ffffffffffffffffffffffffffffffffffffffff163b119050919050565b82805461216890612ea0565b90600052602060002090601f01602090048101928261218a57600085556121d1565b82601f106121a357805160ff19168380011785556121d1565b828001600101855582156121d1579182015b828111156121d05782518255916020019190600101906121b5565b5b5090506121de91906121e2565b5090565b5b808211156121fb5760008160009055506001016121e3565b5090565b600061221261220d84612cb0565b612c8b565b90508281526020810184848401111561222a57600080fd5b612235848285612e5e565b509392505050565b600061225061224b84612ce1565b612c8b565b90508281526020810184848401111561226857600080fd5b612273848285612e5e565b509392505050565b60008135905061228a8161344e565b92915050565b60008135905061229f81613465565b92915050565b6000813590506122b48161347c565b92915050565b6000815190506122c98161347c565b92915050565b600082601f8301126122e057600080fd5b81356122f08482602086016121ff565b91505092915050565b600082601f83011261230a57600080fd5b813561231a84826020860161223d565b91505092915050565b60008135905061233281613493565b92915050565b60006020828403121561234a57600080fd5b60006123588482850161227b565b91505092915050565b6000806040838503121561237457600080fd5b60006123828582860161227b565b92505060206123938582860161227b565b9150509250929050565b6000806000606084860312156123b257600080fd5b60006123c08682870161227b565b93505060206123d18682870161227b565b92505060406123e286828701612323565b9150509250925092565b6000806000806080858703121561240257600080fd5b60006124108782880161227b565b94505060206124218782880161227b565b935050604061243287828801612323565b925050606085013567ffffffffffffffff81111561244f57600080fd5b61245b878288016122cf565b91505092959194509250565b6000806040838503121561247a57600080fd5b60006124888582860161227b565b925050602061249985828601612290565b9150509250929050565b600080604083850312156124b657600080fd5b60006124c48582860161227b565b92505060206124d585828601612323565b9150509250929050565b6000602082840312156124f157600080fd5b60006124ff848285016122a5565b91505092915050565b60006020828403121561251a57600080fd5b6000612528848285016122ba565b91505092915050565b6000806040838503121561254457600080fd5b600083013567ffffffffffffffff81111561255e57600080fd5b61256a858286016122f9565b925050602061257b85828601612323565b9150509250929050565b60006020828403121561259757600080fd5b60006125a584828501612323565b91505092915050565b600080604083850312156125c157600080fd5b60006125cf85828601612323565b92505060206125e085828601612323565b9150509250929050565b6125f381612dea565b82525050565b61260281612dfc565b82525050565b600061261382612d12565b61261d8185612d28565b935061262d818560208601612e6d565b61263681612f90565b840191505092915050565b600061264c82612d1d565b6126568185612d44565b9350612666818560208601612e6d565b61266f81612f90565b840191505092915050565b600061268582612d1d565b61268f8185612d55565b935061269f818560208601612e6d565b80840191505092915050565b60006126b8602783612d44565b91506126c382612fa1565b604082019050919050565b60006126db602783612d44565b91506126e682612ff0565b604082019050919050565b60006126fe602d83612d44565b91506127098261303f565b604082019050919050565b6000612721603283612d44565b915061272c8261308e565b604082019050919050565b6000612744602583612d44565b915061274f826130dd565b604082019050919050565b6000612767601c83612d44565b91506127728261312c565b602082019050919050565b600061278a602483612d44565b915061279582613155565b604082019050919050565b60006127ad601983612d44565b91506127b8826131a4565b602082019050919050565b60006127d0603a83612d44565b91506127db826131cd565b604082019050919050565b60006127f3601d83612d44565b91506127fe8261321c565b602082019050919050565b6000612816602983612d44565b915061282182613245565b604082019050919050565b6000612839602083612d44565b915061284482613294565b602082019050919050565b600061285c601d83612d44565b9150612867826132bd565b602082019050919050565b600061287f601883612d44565b915061288a826132e6565b602082019050919050565b60006128a2604383612d44565b91506128ad8261330f565b606082019050919050565b60006128c5602183612d44565b91506128d082613384565b604082019050919050565b60006128e8601e83612d44565b91506128f3826133d3565b602082019050919050565b600061290b600083612d39565b9150612916826133fc565b600082019050919050565b600061292e603d83612d44565b9150612939826133ff565b604082019050919050565b61294d81612e54565b82525050565b600061295f828561267a565b915061296b828461267a565b91508190509392505050565b6000612982826128fe565b9150819050919050565b60006020820190506129a160008301846125ea565b92915050565b60006080820190506129bc60008301876125ea565b6129c960208301866125ea565b6129d66040830185612944565b81810360608301526129e88184612608565b905095945050505050565b6000602082019050612a0860008301846125f9565b92915050565b60006020820190508181036000830152612a288184612641565b905092915050565b60006020820190508181036000830152612a49816126ab565b9050919050565b60006020820190508181036000830152612a69816126ce565b9050919050565b60006020820190508181036000830152612a89816126f1565b9050919050565b60006020820190508181036000830152612aa981612714565b9050919050565b60006020820190508181036000830152612ac981612737565b9050919050565b60006020820190508181036000830152612ae98161275a565b9050919050565b60006020820190508181036000830152612b098161277d565b9050919050565b60006020820190508181036000830152612b29816127a0565b9050919050565b60006020820190508181036000830152612b49816127c3565b9050919050565b60006020820190508181036000830152612b69816127e6565b9050919050565b60006020820190508181036000830152612b8981612809565b9050919050565b60006020820190508181036000830152612ba98161282c565b9050919050565b60006020820190508181036000830152612bc98161284f565b9050919050565b60006020820190508181036000830152612be981612872565b9050919050565b60006020820190508181036000830152612c0981612895565b9050919050565b60006020820190508181036000830152612c29816128b8565b9050919050565b60006020820190508181036000830152612c49816128db565b9050919050565b60006020820190508181036000830152612c6981612921565b9050919050565b6000602082019050612c856000830184612944565b92915050565b6000612c95612ca6565b9050612ca18282612ed2565b919050565b6000604051905090565b600067ffffffffffffffff821115612ccb57612cca612f61565b5b612cd482612f90565b9050602081019050919050565b600067ffffffffffffffff821115612cfc57612cfb612f61565b5b612d0582612f90565b9050602081019050919050565b600081519050919050565b600081519050919050565b600082825260208201905092915050565b600081905092915050565b600082825260208201905092915050565b600081905092915050565b6000612d6b82612e54565b9150612d7683612e54565b9250827fffffffffffffffffffffffffffffffffffffffffffffffffffffffffffffffff03821115612dab57612daa612f03565b5b828201905092915050565b6000612dc182612e54565b9150612dcc83612e54565b925082821015612ddf57612dde612f03565b5b828203905092915050565b6000612df582612e34565b9050919050565b60008115159050919050565b60007fffffffff0000000000000000000000000000000000000000000000000000000082169050919050565b600073ffffffffffffffffffffffffffffffffffffffff82169050919050565b6000819050919050565b82818337600083830152505050565b60005b83811015612e8b578082015181840152602081019050612e70565b83811115612e9a576000848401525b50505050565b60006002820490506001821680612eb857607f821691505b60208210811415612ecc57612ecb612f32565b5b50919050565b612edb82612f90565b810181811067ffffffffffffffff82111715612efa57612ef9612f61565b5b80604052505050565b7f4e487b7100000000000000000000000000000000000000000000000000000000600052601160045260246000fd5b7f4e487b7100000000000000000000000000000000000000000000000000000000600052602260045260246000fd5b7f4e487b7100000000000000000000000000000000000000000000000000000000600052604160045260246000fd5b6000601f19601f8301169050919050565b7f596f752063616e27742073616c6520746865205374617220796f7520646f6e2760008201527f74206f776e656400000000000000000000000000000000000000000000000000602082015250565b7f596f752063616e2774207472616e73666572205374617220796f7520646f6e2760008201527f74206f776e656400000000000000000000000000000000000000000000000000602082015250565b7f4552433732313a2063616c6c6572206973206e6f7420746f6b656e206f776e6560008201527f72206f7220617070726f76656400000000000000000000000000000000000000602082015250565b7f4552433732313a207472616e7366657220746f206e6f6e20455243373231526560008201527f63656976657220696d706c656d656e7465720000000000000000000000000000602082015250565b7f4552433732313a207472616e736665722066726f6d20696e636f72726563742060008201527f6f776e6572000000000000000000000000000000000000000000000000000000602082015250565b7f4552433732313a20746f6b656e20616c7265616479206d696e74656400000000600082015250565b7f4552433732313a207472616e7366657220746f20746865207a65726f2061646460008201527f7265737300000000000000000000000000000000000000000000000000000000602082015250565b7f4552433732313a20617070726f766520746f2063616c6c657200000000000000600082015250565b7f416464726573733a20756e61626c6520746f2073656e642076616c75652c207260008201527f6563697069656e74206d61792068617665207265766572746564000000000000602082015250565b7f416464726573733a20696e73756666696369656e742062616c616e6365000000600082015250565b7f4552433732313a2061646472657373207a65726f206973206e6f74206120766160008201527f6c6964206f776e65720000000000000000000000000000000000000000000000602082015250565b7f4552433732313a206d696e7420746f20746865207a65726f2061646472657373600082015250565b7f596f75206e65656420746f206861766520656e6f756768204574686572000000600082015250565b7f4552433732313a20696e76616c696420746f6b656e2049440000000000000000600082015250565b7f596f75206861766520746f206f776e206174206c65617374206f6e65206f662060008201527f74686520737461727320696e206f7264657220746f2065786368616e6765207460208201527f68656d0000000000000000000000000000000000000000000000000000000000604082015250565b7f4552433732313a20617070726f76616c20746f2063757272656e74206f776e6560008201527f7200000000000000000000000000000000000000000000000000000000000000602082015250565b7f54686520537461722073686f756c6420626520757020666f722073616c650000600082015250565b50565b7f4552433732313a20617070726f76652063616c6c6572206973206e6f7420746f60008201527f6b656e206f776e6572206f7220617070726f76656420666f7220616c6c000000602082015250565b61345781612dea565b811461346257600080fd5b50565b61346e81612dfc565b811461347957600080fd5b50565b61348581612e08565b811461349057600080fd5b50565b61349c81612e54565b81146134a757600080fd5b5056fea2646970667358221220b403ed6b422e40de50293f333744151d10d004f5d9062dfff1b8cbe760505a8864736f6c63430008010033",
  "immutableReferences": {},
  "source": "// SPDX-License-Identifier: MIT\npragma solidity >=0.4.24;\n\n//Importing openzeppelin-solidity ERC-721 implemented Standard\nimport \"../node_modules/openzeppelin-solidity/contracts/token/ERC721/ERC721.sol\";\n\n// StarNotary Contract declaration inheritance the ERC721 openzeppelin implementation\ncontract StarNotary is ERC721 {\n\n    // Star data\n    struct Star {\n        string name;\n    }\n\n    // Implement Task 1 Add a name and symbol properties\n    // name: Is a short name to your token\n    // symbol: Is a short string like 'USD' -> 'American Dollar'\n    constructor() ERC721(\"SonNH65 Token\", \"VND\") {}\n    \n\n    // mapping the Star with the Owner Address\n    mapping(uint256 => Star) public tokenIdToStarInfo;\n    // mapping the TokenId and price\n    mapping(uint256 => uint256) public starsForSale;\n\n    \n    // Create Star using the Struct\n    function createStar(string memory _name, uint256 _tokenId) public { // Passing the name and tokenId as a parameters\n        Star memory newStar = Star(_name); // Star is an struct so we are creating a new Star\n        tokenIdToStarInfo[_tokenId] = newStar; // Creating in memory the Star -> tokenId mapping\n        _mint(msg.sender, _tokenId); // _mint assign the the star with _tokenId to the sender address (ownership)\n    }\n\n    // Putting an Star for sale (Adding the star tokenid into the mapping starsForSale, first verify that the sender is the owner)\n    function putStarUpForSale(uint256 _tokenId, uint256 _price) public {\n        require(ownerOf(_tokenId) == msg.sender, \"You can't sale the Star you don't owned\");\n        starsForSale[_tokenId] = _price;\n    }\n\n\n    // Function that allows you to convert an address into a payable address\n    function _make_payable(address x) internal pure returns (address payable) {\n        return payable(address(uint160(x)));\n    }\n\n    function buyStar(uint256 _tokenId) public  payable {\n        require(starsForSale[_tokenId] > 0, \"The Star should be up for sale\");\n        uint256 starCost = starsForSale[_tokenId];\n        address ownerAddress = ownerOf(_tokenId);\n        require(msg.value > starCost, \"You need to have enough Ether\");\n        transferFrom(ownerAddress, msg.sender, _tokenId); // We can't use _addTokenTo or_removeTokenFrom functions, now we have to use _transferFrom\n        address payable ownerAddressPayable = _make_payable(ownerAddress); // We need to make this conversion to be able to use transfer() function to transfer ethers\n\n        // transfer() method is no longer recommended using: https://consensys.net/diligence/blog/2019/09/stop-using-soliditys-transfer-now/\n        // ownerAddressPayable.transfer(starCost); \n        Address.sendValue(ownerAddressPayable, starCost);\n        if(msg.value > starCost) {\n            Address.sendValue(payable(msg.sender), msg.value - starCost);\n            // payable(msg.sender).transfer(msg.value - starCost);\n        }\n    }\n\n    // Implement Task 1 lookUptokenIdToStarInfo\n    function lookUptokenIdToStarInfo (uint _tokenId) public view returns (string memory) {\n        //1. You should return the Star saved in tokenIdToStarInfo mapping\n        return tokenIdToStarInfo[_tokenId].name;\n    }\n\n    // Implement Task 1 Exchange Stars function\n    function exchangeStars(uint256 _tokenId1, uint256 _tokenId2) public {\n        //1. Passing to star tokenId you will need to check if the owner of _tokenId1 or _tokenId2 is the sender\n        //2. You don't have to check for the price of the token (star)\n        require(ownerOf(_tokenId1) == msg.sender || ownerOf(_tokenId2) == msg.sender, \"You have to own at least one of the stars in order to exchange them\");\n        //3. Get the owner of the two tokens (ownerOf(_tokenId1), ownerOf(_tokenId2)\n        address owner1 = ownerOf(_tokenId1);\n        address owner2 = ownerOf(_tokenId2);\n        //4. Use _transferFrom function to exchange the tokens.\n        transferFrom(owner1, owner2, _tokenId1);\n        transferFrom(owner2, owner1, _tokenId2);\n    }\n\n    // Implement Task 1 Transfer Stars\n    function transferStar(address _to1, uint256 _tokenId) public {\n        //1. Check if the sender is the ownerOf(_tokenId)\n        //2. Use the transferFrom(from, to, tokenId); function to transfer the Star\n        address owner = ownerOf(_tokenId);\n        require(ownerOf(_tokenId) == msg.sender, \"You can't transfer Star you don't owned\");\n        transferFrom(owner, _to1, _tokenId);\n    }\n}",
  "sourcePath": "/Users/named/Downloads/Udacity/erc721-code-template/contracts/StartNotary.sol",
  "compiler": {
    "name": "solc",
    "version": "0.8.1+commit.df193b15.Emscripten.clang"
  },
  "schemaVersion": "3.4.5",
  "updatedAt": "2023-12-12T04:23:40.384Z",
  "networkType": "ethereum",
  "devdoc": {
    "kind": "dev",
    "methods": {
      "approve(address,uint256)": {
        "details": "See {IERC721-approve}."
      },
      "balanceOf(address)": {
        "details": "See {IERC721-balanceOf}."
      },
      "getApproved(uint256)": {
        "details": "See {IERC721-getApproved}."
      },
      "isApprovedForAll(address,address)": {
        "details": "See {IERC721-isApprovedForAll}."
      },
      "name()": {
        "details": "See {IERC721Metadata-name}."
      },
      "ownerOf(uint256)": {
        "details": "See {IERC721-ownerOf}."
      },
      "safeTransferFrom(address,address,uint256)": {
        "details": "See {IERC721-safeTransferFrom}."
      },
      "safeTransferFrom(address,address,uint256,bytes)": {
        "details": "See {IERC721-safeTransferFrom}."
      },
      "setApprovalForAll(address,bool)": {
        "details": "See {IERC721-setApprovalForAll}."
      },
      "supportsInterface(bytes4)": {
        "details": "See {IERC165-supportsInterface}."
      },
      "symbol()": {
        "details": "See {IERC721Metadata-symbol}."
      },
      "tokenURI(uint256)": {
        "details": "See {IERC721Metadata-tokenURI}."
      },
      "transferFrom(address,address,uint256)": {
        "details": "See {IERC721-transferFrom}."
      }
    },
    "version": 1
  },
  "userdoc": {
    "kind": "user",
    "methods": {},
    "version": 1
  }
}